8=FIX.4.2|9=49|35=5|34=1|49=ARCA|52=20150916-04:14:05.306|56=TW|10=157|
